:020000040000FA
:060000000A128A11FC2F18
:100F3C002F308316031789000130831603138500A5
:100F4C000130860088010130831203139F000E309C
:100F5C00831603139F00831203138101831603135B
:100F6C00811201128111011481140115BD2F0B1D69
:100F7C00C02FC12FC92F0130F4070318F50A003018
:100F8C00F5070B11C92F75037404031DCE2FCF2F3A
:100F9C00D22FF401F501D22F83120609013903195E
:100FAC00D82FD92FDD2F9F141E088800BD2F741E3B
:100FBC00E02FE12FF42FF41DE42FE52FF42F741DF7
:100FCC00E82FE92FF42FF41CEC2FED2FF42F741CC9
:100FDC00F02FF12FF42F01308800BD2F8801BD2F89
:100FEC00BD2FBD2FBD2F0A128A11002883010A12B2
:040FFC008A119E2F89
:02400E00F4EFCD
:00000001FF
