:020000040000FA
:060000000A128A11FC2F18
:100F44002F3083160317890001308316031385009D
:100F54000130860088010130831203139F000E3094
:100F6400831603139F008312031381018316031353
:100F7400811201128111011481140115C12F0B1D5D
:100F8400C42FC52FCD2F0130F4070318F50A003004
:100F9400F5070B11CD2F75037404031DD22FD32F26
:100FA400D62FF401F501D62F83120609013903194E
:100FB400DC2FDD2FE12F9F141E088800C12FF41DA4
:100FC400E42FE52FF42F741DE82FE92FF42FF41CE0
:100FD400EC2FED2FF42F741CF02FF12FF42F013090
:100FE4008800C12F8801C12FC12FC12FC12F0A1220
:0C0FF4008A11002883010A128A11A22F22
:02400E00F4EFCD
:00000001FF
